:020000040000FA
:100000000C94D6000C94FE000C94FE000C94FE00A0
:100010000C94FE000C94FE000C94FE000C94FE0068
:100020000C94FE000C94FE000C94FE000C94FE0058
:100030000C94FE000C94FE000C94FE000C94FE0048
:100040000C9470040C94FE000C94FE000C94FE00C2
:100050000C94FE000C94FE000C94FE000C94FE0028
:100060000C94BA040C94FE0000407A10F35A00A0DD
:10007000724E18090010A5D4E80000E87648170071
:1000800000E40B54020000CA9A3B000000E1F505B1
:10009000000080969800000040420F000000A086FB
:1000A00001000000102700000000E803000000002D
:1000B0006400000000000A000000000001000000D1
:1000C00000002C76D888DC674F0823DFC1DFAE59EB
:1000D000E1B1B796E5E3E453C63AE651997696E87E
:1000E000E6C28426EB898C9B62ED407C6FFCEFBC02
:1000F0009C9F40F2BAA56FA5F490055A2AF75C932D
:100100006B6CF9676DC11BFCE0E40D47FEF520E662
:10011000B500D0ED902E0300943577050080841E45
:10012000080000204E0A000000C80C333333330FA0
:10013000986E12831141EF8D2114893BE65516CF3D
:10014000FEE6DB18D1844B381BF77C1D901DA4BB49
:10015000E424203284725E228100C9F124ECA1E5FE
:100160003D2700000000250028002B0004040404A3
:100170000404040402020202020203030303030351
:10018000010204081020408001020408102001022E
:10019000040810200000000800020100000304070A
:1001A0000000000000000000D905E70711241FBE71
:1001B000CFEFD8E0DEBFCDBF22E0A8E3B1E001C0C1
:1001C0001D92AD31B207E1F711E0A0E0B1E0ECED36
:1001D000FBE102C005900D92A833B107D9F710E0FA
:1001E000C5EDD0E004C02197FE010E94E90BC43D9B
:1001F000D107C9F70E9438060C94E10D0C94000059
:1002000090E0FC01EC56FE4F2491FC01E058FE4FBB
:100210003491FC01E459FE4FE491EE23C9F022230E
:1002200039F0233001F1A8F4213019F1223029F1FD
:10023000F0E0EE0FFF1FEE59FE4FA591B4918FB77E
:10024000F894EC91611126C030953E233C938FBF0A
:1002500008952730A9F02830C9F0243049F780915B
:1002600080008F7D03C0809180008F778093800015
:10027000DFCF84B58F7784BDDBCF84B58F7DFBCF97
:100280008091B0008F778093B000D2CF8091B00082
:100290008F7DF9CF3E2BDACF3FB7F8948091F701ED
:1002A0009091F801A091F901B091FA0126B5A89BAF
:1002B00005C02F3F19F00196A11DB11D3FBFBA2FF8
:1002C000A92F982F8827BC01CD01620F711D811DB8
:1002D000911D42E0660F771F881F991F4A95D1F73D
:1002E00008958F929F92AF92BF92CF92DF92EF923A
:1002F000FF924B015C010E944C016B017C010E944A
:100300004C016C197D098E099F09683E7340810577
:100310009105A8F321E0821A9108A108B10888EE9E
:10032000C80E83E0D81EE11CF11C81149104A104C5
:10033000B10429F7FF90EF90DF90CF90BF90AF907E
:100340009F908F900895089508950895AF92BF9259
:10035000CF92DF92EF92FF920F931F93CF93DF9391
:100360006C017B018B01040F151FEB015E01AE18C0
:10037000BF08C017D10759F06991D601ED91FC91E2
:100380000190F081E02DC6010995892B79F7C5010F
:10039000DF91CF911F910F91FF90EF90DF90CF9061
:1003A000BF90AF90089520917901260F3327331F16
:1003B00021323105ECF42091C201FC0190E080E093
:1003C000243069F082E00895A09179012191AC0177
:1003D000475A5E4FA40FB52FB11D2C930196861777
:1003E00098F380917901680F6093790180E0089516
:1003F00081E008951092C20181E08093C1011092C2
:100400009C0161E082E10E94000161E083E10E94C1
:100410000001E9EBF0E080818E7F808380818D7F19
:10042000808388E48093B80085E48093BC000895BD
:10043000CF93DF9391E0909358018823B9F0C09156
:10044000B800D091BA008091BC008A7B8093BC0038
:1004500060E082E10E94000160E083E10E9400010F
:100460000E94FA01D093BA00C093B800DF91CF91F7
:1004700008950895E091F1018091F001E81730F4BA
:10048000F0E0E85CFE4F808190E008958FEF9FEFF1
:1004900008959091F1018091F0012FEF3FEF9817AF
:1004A00048F4E92FF0E0E85CFE4F208130E09F5FE8
:1004B0009093F101C90108958091F0019091F101AB
:1004C000891B990B0895CF92DF92EF92FF920F93C1
:1004D0001F93CF93DF937C01CB018A012091C80148
:1004E000222389F0EB016B01C40ED51ECC15DD056E
:1004F00069F06991D701ED91FC910190F081E02DB7
:10050000C7010995F3CF642F0E94D301C801DF9181
:10051000CF911F910F91FF90EF90DF90CF900895B2
:10052000CF93DF931F92CDB7DEB769832091C801C7
:100530002223F9F02091EE01203258F021E030E042
:10054000FC013383228390E080E00F90DF91CF9114
:1005500008958091EF01E82FF0E0E753FE4F998175
:1005600090838F5F8093EF018093EE0181E090E0B4
:10057000ECCF61E0CE0101960E94D301F7CFCF927C
:10058000DF92EF92FF920F931F93CF93DF93FC01C3
:10059000C48121E02093C801C093E9011092EF01CA
:1005A0001092EE018385682B8BEF91E00E94900200
:1005B000D091EE01D13208F092C00E944C016B0143
:1005C0007C018091C201811165C082E08093C201EB
:1005D00081E08093C1018FEF8093C0011092BF0131
:1005E000D093BE01A9ECB1E0EEE9F1E080E0D813D0
:1005F00085C010929D0180919D01CC0FC82BC093A6
:100600009D0180919C01813009F07CC010929C0179
:100610000E944C016B017C0180919D018093BB0085
:100620008091C4019091C501A091C601B091C7010C
:10063000892B8A2B8B2B99F00E944C010091C401CD
:100640001091C5012091C6013091C7016C197D0937
:100650008E099F090617170728073907E0F18091CF
:10066000BC0083FDD9CF85EC8093BC000E944C0177
:100670006B017C018091C201823009F445C08091F8
:10068000C0018F3F61F18091C001803241F18091C2
:10069000C00125C08091C4019091C501A091C601FF
:1006A000B091C701892B8A2B8B2B09F48ACF0E942A
:1006B0004C010091C4011091C5012091C6013091F7
:1006C000C7016C197D098E099F09061717072807AE
:1006D000390708F076CF8091C3010E94180210926A
:1006E000EF011092EE011092C801DF91CF911F919E
:1006F0000F91FF90EF90DF90CF9008959D9191938F
:100700008F5F75CF85EEB0CF8091C4019091C50108
:10071000A091C601B091C701892B8A2B8B2B09F4BC
:10072000A9CF0E944C010091C4011091C5012091F4
:10073000C6013091C7016C197D098E099F09061702
:1007400017072807390708F095CFC5CF90E080E05C
:1007500008950F931F93CF938C01C62F0E94BF0261
:100760006C2F6460C8010E94BF026C2F6B7FC801B0
:100770000E94BF0283EC90E00197F1F7CF911F91A7
:100780000F9108950F931F93CF93DF938C01D62F72
:10079000C42F607F642B0E94A90380E1D89FB00121
:1007A00011246C2BC801DF91CF911F910F910C94F4
:1007B000A903CF93DF93CDB7DEB728970FB6F89490
:1007C000DEBF0FBECDBF98E0E6E0F1E0DE0111969E
:1007D00001900D929A95E1F790911502981708F4FF
:1007E0008FEF90E0880F991F21E030E02C0F3D1F24
:1007F000820F931FFC016081606840E08DE092E011
:1008000028960FB6F894DEBF0FBECDBFDF91CF9113
:100810000C94C20341E00E94C20381E090E008957D
:100820000F931F93CF93DF93EC01888199810097F9
:1008300059F02A813B812617370730F081E0DF919C
:10084000CF911F910F9108958B016F5F7F4F0E9491
:10085000140D009759F0998388831B830A832C8198
:100860003D81232B59F7FC011082E8CF80E0E7CFD0
:1008700085ED8093BC008091C4019091C501A09149
:10088000C601B091C7010796A11DB11D23E0B69521
:10089000A795979587952A95D1F72091BC0024FDBF
:1008A00003C01092C20108954091C4015091C50146
:1008B0006091C6017091C701452B462B472B69F308
:1008C0000097A105B10541F02AE22A95F1F700C091
:1008D0000197A109B109E1CF8091C3010C941802DD
:1008E0001F920F920FB60F9211242F933F938F9365
:1008F0009F93AF93BF938091F3019091F401A091E6
:10090000F501B091F6013091F20123E0230F2D376C
:1009100058F50196A11DB11D2093F2018093F301BA
:100920009093F401A093F501B093F6018091F70143
:100930009091F801A091F901B091FA010196A11DE1
:10094000B11D8093F7019093F801A093F901B09342
:10095000FA01BF91AF919F918F913F912F910F908D
:100960000FBE0F901F90189526E8230F0296A11D29
:10097000B11DD2CF1F920F920FB60F9211242F9359
:100980003F934F935F936F937F938F939F93AF9317
:10099000BF93EF93FF938091B900887F803609F46D
:1009A0004AC0F0F5883209F4A7C018F5803109F47F
:1009B0009BC0B8F4882309F4F9C0883009F494C0C6
:1009C000FF91EF91BF91AF919F918F917F916F9127
:1009D0005F914F913F912F910F900FBE0F901F90FD
:1009E0001895883109F488C0803251F78093C0018E
:1009F00014C0803409F49DC040F48033B9F38833C7
:100A0000F9F68093C00185ECB0C0803509F485C04B
:100A1000883509F496C0883499F60E943804D0CFFE
:100A2000883909F48CC038F5883729F050F48836B5
:100A300011F0803729F683E08093C20110929B0168
:100A400057C0883809F47BC0803919F0803809F024
:100A5000B7CF80919B01803208F071C0E0919B017B
:100A600081E08E0F80939B018091BB00F0E0E55800
:100A7000FE4F80833DC0803B39F0E0F4803A09F4BA
:100A800079C0883A09F09CCF84E08093C20110922B
:100A90007A0110927901E091EC01F091ED01099554
:100AA0008091790181110FC081E0809379011092CA
:100AB000590109C0803C09F4A6CF883C09F4A3CFB2
:100AC000883B09F07DCFE0917A0181E08E0F809321
:100AD0007A01F0E0E75AFE4F80818093BB0090914D
:100AE0007A018091790129C080919D018093BB009A
:100AF00085EC8093BC0064CF9091BF018091BE01D2
:100B0000981758F5E091BF0181E08E0F8093BF01E7
:100B1000F0E0E256FE4F8081E9CFE091BF0181E035
:100B20008E0F8093BF018091BB00F0E0E256FE4F34
:100B300080839091BF018091BE019817C8F285E82B
:100B4000D8CFE091BF0181E08E0F8093BF018091EB
:100B5000BB00F0E0E256FE4F80838091C10181111D
:100B60005CCF81E080939C0184EA8093BC0010926A
:100B7000C20126CF85EC8093BC001092C201809107
:100B80009B01803230F4E0919B01F0E0E558FE4F8C
:100B9000108260919B0170E0E091EA01F091EB011D
:100BA0008BE791E0099510929B010ACF1092C0014A
:100BB00034CF1092FE011092FD0188EE93E0A0E088
:100BC000B0E08093FF0190930002A0930102B093E4
:100BD000020282E191E09093FC018093FB0110926C
:100BE000100210920F0284E291E090930E02809323
:100BF0000D0287E28093110280E18093160282E069
:100C000080931702109218021092080210920702A5
:100C100010920A021092090210920C0210920B021A
:100C200070E060E087E092E00E94100420910702EB
:100C300030910802811113C02115310519F0C90145
:100C40000E948B0C109208021092070210920C0264
:100C500010920B0210920A0210920902089510924B
:100C60000C0210920B0267E371E0C9010C94DA0DDB
:100C7000CF93DF93CDB7DEB7A7970FB6F894DEBF5B
:100C80000FBECDBF789484B5826084BD84B5816089
:100C900084BD85B5826085BD85B5816085BD809147
:100CA0006E00816080936E001092810080918100BF
:100CB00082608093810080918100816080938100B7
:100CC000809180008160809380008091B100846079
:100CD0008093B1008091B00081608093B0008091DA
:100CE0007A00846080937A0080917A008260809399
:100CF0007A0080917A00816080937A0080917A00F6
:100D0000806880937A001092C1001092F1011092D5
:100D1000F0011092EF011092EE010E94FA0183EAB5
:100D200091E09093ED018093EC0184EA91E090933F
:100D3000EB018093EA011092120280911702823037
:100D400018F098E0909312028093150262E370E02D
:100D500080E090E00E947101609118028DE092E0C5
:100D60000E94BF0268EE73E080E090E00E94710193
:100D700060E38DE092E00E94A9030BE416E4C80151
:100D80000197F1F760E38DE092E00E94A903C801AA
:100D90000197F1F760E38DE092E00E94A90383E5FB
:100DA00092E00197F1F760E28DE092E00E94A903E2
:100DB00060911202606240E08DE092E00E94C20306
:100DC00084E08093130240E06CE08DE092E00E94AA
:100DD000C20340E061E08DE092E00E94C2030BE3B9
:100DE0001FE1C8010197F1F782E08093140240E00F
:100DF00066E08DE092E00E94C20340E062E08DE098
:100E000092E00E94C203C8010197F1F788E0809345
:100E1000180260E08DE092E00E94BF0240E061E0D5
:100E20008DE092E00E94C203C8010197F1F740E013
:100E300062E08DE092E00E94C203C8010197F1F7E1
:100E400080E00E94D9034BE050E06CE271E08DE05D
:100E500092E00E94A60180E4B82E90E0C92E90E0B6
:100E6000D92EB0927C0080917A00806480937A00C1
:100E700080917A0086FDFCCF6091780070917900B6
:100E80001BA21AA21DA21CA21FA21EA2072E000CAA
:100E9000880B990B0E94470A20E030E040EA50E4BA
:100EA0000E94820A20E030E040E85AE30E94820A71
:100EB0002AE037ED43E25CE30E94770B8E010F5F7F
:100EC0001F4F22E044E00E94F0077C01009709F4E4
:100ED0005FC0FC0101900020E9F731978F01081BEA
:100EE000190BB801CE0182960E9410042AA13BA1E1
:100EF000811147C02115310519F0C9010E948B0CE1
:100F00001BA21AA21FA21EA21DA21CA28091070250
:100F100090910802009709F443C06AA17BA1611572
:100F20007105E1F14091090250910A022EA13FA101
:100F30004217530798F10E94DA0D8EA19FA190935A
:100F40000C0280930B021FA21EA28AA19BA10097F4
:100F500011F00E948B0C81E00E94D90340910B029A
:100F600050910C0260910702709108028DE092E0AE
:100F70000E94A601C114D10409F473CF0E9400009D
:100F800070CF1FA30EA3B701C9010E94DA0DBECF17
:100F90008AA19BA1009709F0B1CFB2CF0E948B0C20
:100FA0008AA19BA190930802809307028CA19DA126
:100FB00090930A02809309028EA19FA190930C0244
:100FC00080930B021BA21AA21DA21CA2BCCF80916F
:100FD000070290910802009711F00C948B0C089571
:100FE000EF920F931F93CF93DF93E80134E047FD17
:100FF00034E1042E000C550B57FF03C05195419569
:101000005109E32E022F242FAE010E940E08CE01BB
:10101000DF91CF911F910F91EF900895A9E0B0E07B
:10102000E4E1F8E00C94460B6A01F22EB02E102F8A
:10103000FBE3AF2EA01608F41BE31F5F012F27E090
:10104000AE014F5F5F4F0E946D09BC018981982FEF
:101050009970913009F43FC09BE2E1FC04C09E2DE1
:101060009170E0FC3AC05E2D5071E82FE87083FF6C
:1010700046C084E0911101C083E0EF2DE81B8F157D
:1010800008F0E0E0D6018E2F20E2552351F199239C
:1010900029F0D6019C93C60101966C0196012D5F43
:1010A0003F4FE2FE24C08EE4D6018C9391E411966A
:1010B0009C93119712968C93D9018E2F90E28111F7
:1010C0001BC0E20FF32FF11D10828EEF9FEF2996C8
:1010D000ECE00C94620B9DE2C6CF90E2C4CF2D935E
:1010E00081508111FCCFCE0ED11CE0E0D0CF8EE636
:1010F000D6018C9391E6DBCF9D938150E0CF482FB2
:10110000447082FF3DC084E0911101C083E08F15DF
:1011100010F4EF2DE81BD6018E2F20E2552309F1A4
:10112000992329F0D6019C93C60101966C01960182
:101130002D5F3F4FE2FE1BC089E4D6018C938EE405
:1011400011968C93119786E412968C93D9018E2F69
:1011500090E2882309F4B5CF9D938150FACF2D9367
:1011600081508111FCCFCE0ED11CE0E0D9CF89E6B1
:10117000D6018C938EE611968C93119786E6E4CF78
:101180009B0177FF02C030E020E0A1E0B0E09111C8
:1011900002C0B0E0A0E0F9013196AE0FBF1F8B2C6A
:1011A000912CBB2009F461C05401EFEFAE1ABE0AC6
:1011B000AA0DBB1DFA161B0619F014F04F2D4A1B81
:1011C000511188C0E3FC59C07601A42FB0E2A111EF
:1011D0004FC0C40ED11C992309F45BC040E0D60176
:1011E0001196F60190836D01552309F448C0012F33
:1011F000060F9A81582F507184FF03C0913309F470
:10120000015010160CF047C0093008F008E0EEE27B
:10121000FE2E5B01A01AB10885019194819491087A
:101220002F3F320729F4D601FC92F60131966F0167
:101230006217730794F1021713077CF5DB01A21BF9
:10124000B30BAA24A394B12CAC0EBD1EAA0DBB1DDA
:1012500011968C9121503109D60111962815390526
:10126000F4F0F60180836D01DBCFB12CA12CA0CF6F
:10127000F701B1937F01A150AACF9111B0CFD60150
:10128000942F50E302C05D9391509111FCCFC40E96
:10129000D11C40E0ACCF01E0BACF80E3DBCF6217D6
:1012A000730731F4963388F4953311F4552369F0BC
:1012B000F6018083FD01842F90E2811108C0A40F04
:1012C000B11D1C9290E080E002CF81E3F1CF9193B9
:1012D0008150F3CF911183CF8ACF283008F027E0D7
:1012E0003327DA01990F311D87FD91600096610562
:1012F000710539F432602E5F3D9330E32A95E1F7B2
:1013000008959F3F30F080387105610509F03C5F1A
:101310003C5F3D93913008F08068911DDF93CF933F
:101320001F930F93FF92EF92192F987F9695E92FB5
:1013300096959695E90FFF27EE53FF4F9927332790
:10134000EE24FF24A701E70105900894079428F4F0
:10135000360FE71EF81E491F511D660F771F881FA5
:10136000991F0694A1F70590079428F4E70EF81E3C
:10137000491F561FC11D770F881F991F661F0694AE
:10138000A1F70590079428F4F80E491F561FC71FB0
:10139000D11D880F991F661F771F0694A1F705902E
:1013A000079420F4490F561FC71FD81F990F661FB7
:1013B000771F881F0694A9F784911095177041F044
:1013C000D695C79557954795F794E7941A95C1F721
:1013D000E8E6F0E068941590159135916591959146
:1013E00005907FE27395E118F10A430B560BC90B88
:1013F000D009C0F7E10CF11E431F561FC91FD01DB5
:101400007EF4703311F48A95E6CFE894015030F001
:10141000080F0AF40027021708F4202F2395022F43
:101420007A3328F079E37D932A95E9F710C07D930C
:101430002A9589F606949795679537951795179489
:10144000E118F10A430B560BC90BD00998F023950C
:101450007E9173957A3308F070E37C932013B8F78C
:101460007E9170617D9330F0839571E37D9370E39D
:101470002A95E1F71124EF90FF900F911F91CF91E2
:10148000DF91992787FD90950895E89409C097FB0F
:101490003EF490958095709561957F4F8F4F9F4F4B
:1014A0009923A9F0F92F96E9BB279395F69587958F
:1014B00077956795B795F111F8CFFAF4BB0F11F452
:1014C00060FF1BC06F5F7F4F8F4F9F4F16C08823F9
:1014D00011F096E911C0772321F09EE8872F762F2F
:1014E00005C0662371F096E8862F70E060E02AF070
:1014F0009A95660F771F881FDAF7880F969587955C
:1015000097F908950E94950A0C94060B0E94F80A18
:1015100038F00E94FF0A20F0952311F00C94EF0A96
:101520000C94F50A11240C943A0B0E94170B70F3DB
:10153000959FC1F3950F50E0551F629FF001729F78
:10154000BB27F00DB11D639FAA27F00DB11DAA1F87
:10155000649F6627B00DA11D661F829F2227B00DD4
:10156000A11D621F739FB00DA11D621F839FA00D5F
:10157000611D221F749F3327A00D611D231F849FAF
:10158000600D211D822F762F6A2F11249F57504006
:101590009AF0F1F088234AF0EE0FFF1FBB1F661F81
:1015A000771F881F91505040A9F79E3F510580F04A
:1015B0000C94EF0A0C943A0B5F3FE4F3983ED4F39B
:1015C000869577956795B795F795E7959F5FC1F7EE
:1015D000FE2B880F911D9695879597F9089597F999
:1015E0009F6780E870E060E008959FEF80EC0895C9
:1015F00000240A94161617061806090608950024F2
:101600000A9412161306140605060895092E03946B
:10161000000C11F4882352F0BB0F40F4BF2B11F4DF
:1016200060FF04C06F5F7F4F8F4F9F4F089557FD3E
:101630009058440F551F59F05F3F71F04795880F40
:1016400097FB991F61F09F3F79F0879508951216D7
:1016500013061406551FF2CF4695F1DF08C0161683
:1016600017061806991FF1CF869571056105089434
:101670000895E894BB2766277727CB0197F908954B
:101680002F923F924F925F926F927F928F929F9292
:10169000AF92BF92CF92DF92EF92FF920F931F9380
:1016A000CF93DF93CDB7DEB7CA1BDB0B0FB6F89431
:1016B000DEBF0FBECDBF09942A88398848885F8471
:1016C0006E847D848C849B84AA84B984C884DF80E2
:1016D000EE80FD800C811B81AA81B981CE0FD11DC6
:1016E0000FB6F894DEBF0FBECDBFED0108950E9486
:1016F0008B0B0C94060B0E94FF0A58F00E94F80A0C
:1017000040F029F45F3F29F00C94EF0A51110C943A
:101710003A0B0C94F50A0E94170B68F39923B1F366
:10172000552391F3951B550BBB27AA276217730707
:10173000840738F09F5F5F4F220F331F441FAA1F9B
:10174000A9F335D00E2E3AF0E0E832D09150504057
:10175000E695001CCAF72BD0FE2F29D0660F771F05
:10176000881FBB1F261737074807AB07B0E809F0EB
:10177000BB0B802DBF01FF2793585F4F3AF09E3F70
:10178000510578F00C94EF0A0C943A0B5F3FE4F3A8
:10179000983ED4F3869577956795B795F7959F5FB3
:1017A000C9F7880F911D9695879597F90895E1E0FF
:1017B000660F771F881FBB1F621773078407BA075E
:1017C00020F0621B730B840BBA0BEE1F88F7E095B9
:1017D0000895EE0FFF1F0590F491E02D09940F93EB
:1017E0001F93CF93DF938230910510F482E090E055
:1017F000E0911B02F0911C0230E020E0B0E0A0E09C
:10180000309799F42115310509F44AC0281B390B8A
:1018100024303105D8F58A819B816115710589F1E4
:10182000FB0193838283FE0111C0408151810281BB
:10183000138148175907E0F04817590799F4109792
:1018400061F012960C93129713961C933296CF0167
:10185000DF91CF911F910F91089500931B02109378
:101860001C02F4CF2115310551F04217530738F00F
:10187000A901DB019A01BD01DF01F801C1CFEF0130
:10188000F9CF90931C0280931B02CDCFFE01E20F93
:10189000F31F819391932250310939832883D7CF45
:1018A0002091190230911A02232B41F42091020158
:1018B0003091030130931A02209319022091000104
:1018C000309101012115310541F42DB73EB740910A
:1018D000040150910501241B350BE0911902F09190
:1018E0001A02E217F307A0F42E1B3F0B2817390743
:1018F00078F0AC014E5F5F4F2417350748F04E0F6C
:101900005F1F50931A0240931902819391939FCFC6
:10191000F0E0E0E09CCFCF93DF930097E9F0FC018B
:10192000329713821282A0911B02B0911C02ED012A
:1019300030E020E01097A1F420813181820F931FC5
:101940002091190230911A022817390709F061C055
:10195000F0931A02E0931902DF91CF910895EA0102
:10196000CE17DF07E8F54A815B819E0141155105DD
:10197000B1F7E901FB83EA8349915991C40FD51F5F
:10198000EC17FD0761F4808191810296840F951F09
:10199000E90199838883828193819B838A83F0E024
:1019A000E0E012968D919C9113970097B9F52D91D7
:1019B0003C911197CD010296820F931F209119023D
:1019C00030911A022817390739F6309751F51092DD
:1019D0001C0210921B02B0931A02A0931902BCCFF2
:1019E000D383C28340815181840F951FC817D907C3
:1019F00061F44E5F5F4F88819981480F591F518371
:101A000040838A819B81938382832115310509F06C
:101A1000B0CFF0931C02E0931B029ECFFD01DC01CE
:101A2000C0CF13821282D7CFB0E0A0E0EAE1FDE0A0
:101A30000C94420B8C01009751F4CB010E94EF0BE8
:101A40008C01C801CDB7DEB7E0E10C945E0BFC0160
:101A5000E60FF71F9C0122503109E217F30708F443
:101A60009DC0D901CD91DC911197C617D70798F089
:101A7000C530D10530F3CE0104978617970708F3D8
:101A8000C61BD70B2297C193D1936D937C93CF0143
:101A90000E948B0CD6CF5B01AC1ABD0A4C018C0E98
:101AA0009D1EA0911B02B0911C02512C412CF12CC7
:101AB000E12C109731F58091190290911A02881546
:101AC000990509F05CC04616570608F058C0809189
:101AD000000190910101009741F48DB79EB74091AC
:101AE000040150910501841B950BE817F90708F0D4
:101AF00055C0F0931A02E0931902F90171836083D3
:101B0000A0CF8D919C91119712966C90129713967D
:101B10007C901397A815B90559F56C0142E0C40EE5
:101B2000D11CCA14DB0420F1AC014A195B09DA01AB
:101B30001296159780F06282738251834083D90197
:101B40006D937C93E114F10471F0D7011396FC932B
:101B5000EE93129776CF22968C0F9D1FF9019183F9
:101B60008083F301EFCFF0931C02E0931B0269CF57
:101B70004816590608F42C017D01D3019ACFCB01F8
:101B80000E94EF0B7C01009749F0AE01B8010E9462
:101B9000D10DC8010E948B0C870153CF10E000E0EB
:101BA00050CFFB01DC0102C001900D92415050402A
:101BB000D8F70895FB01DC0101900D920020E1F7B8
:101BC000089510E0C5EDD0E004C0FE010E94E90BCD
:101BD0002196C63DD107C9F7F894FFCF00001D023A
:101BE000800000004000140054000000000090023B
:101BF0006302A60339025C0249023A0200000000B7
:101C00000A04A601A603A50154656D70657261748E
:041C10007572650084
:107E0000112484B714BE81FFF0D085E080938100F7
:107E100082E08093C00088E18093C10086E0809377
:107E2000C20080E18093C4008EE0C9D0259A86E02C
:107E300020E33CEF91E0309385002093840096BBD3
:107E4000B09BFECF1D9AA8958150A9F7CC24DD24C4
:107E500088248394B5E0AB2EA1E19A2EF3E0BF2EE7
:107E6000A2D0813461F49FD0082FAFD0023811F036
:107E7000013811F484E001C083E08DD089C08234E0
:107E800011F484E103C0853419F485E0A6D080C0E4
:107E9000853579F488D0E82EFF2485D0082F10E0AE
:107EA000102F00270E291F29000F111F8ED06801E7
:107EB0006FC0863521F484E090D080E0DECF843638
:107EC00009F040C070D06FD0082F6DD080E0C81688
:107ED00080E7D80618F4F601B7BEE895C0E0D1E017
:107EE00062D089930C17E1F7F0E0CF16F0E7DF06D8
:107EF00018F0F601B7BEE89568D007B600FCFDCFD4
:107F0000A601A0E0B1E02C9130E011968C91119780
:107F100090E0982F8827822B932B1296FA010C0160
:107F200087BEE89511244E5F5F4FF1E0A038BF0790
:107F300051F7F601A7BEE89507B600FCFDCF97BE46
:107F4000E89526C08437B1F42ED02DD0F82E2BD052
:107F50003CD0F601EF2C8F010F5F1F4F84911BD097
:107F6000EA94F801C1F70894C11CD11CFA94CF0C13
:107F7000D11C0EC0853739F428D08EE10CD085E9AC
:107F80000AD08FE07ACF813511F488E018D01DD067
:107F900080E101D065CF982F8091C00085FFFCCF94
:107FA0009093C60008958091C00087FFFCCF809118
:107FB000C00084FD01C0A8958091C6000895E0E648
:107FC000F0E098E1908380830895EDDF803219F02E
:107FD00088E0F5DFFFCF84E1DECF1F93182FE3DFCA
:107FE0001150E9F7F2DF1F91089580E0E8DFEE27F6
:047FF000FF270994CA
:027FFE00040479
:00000001FF
