:100000000C945C000C946E000C946E000C946E00CA
:100010000C946E000C946E000C946E000C946E00A8
:100020000C946E000C946E000C946E000C946E0098
:100030000C946E000C946E000C946E000C946E0088
:100040000C94F9000C946E000C946E000C946E00ED
:100050000C946E000C946E000C946E000C946E0068
:100060000C946E000C946E00000000080002010069
:100070000003040700000000000000000000000072
:10008000250028002B0000000000240027002A0083
:10009000040404040404040402020202020203032E
:1000A0000303030301020408102040800102040836
:1000B000102001020408102011241FBECFEFD8E049
:1000C000DEBFCDBF21E0A0E0B1E001C01D92A930AC
:1000D000B207E1F70E9443010C940D020C9400005A
:1000E000E7EAF0E02491E3E9F0E08491882399F0D5
:1000F00090E0880F991FFC01EA57FF4FA591B4913A
:10010000FC01E458FF4F859194918FB7F894EC91DE
:10011000E22BEC938FBF0895EBE6F0E02491E7EA41
:10012000F0E09491E3E9F0E0E491EE23C9F02223BA
:1001300039F0233001F1A8F4213019F1223029F1EE
:10014000F0E0EE0FFF1FE458FF4FA591B4912FB7D9
:10015000F894EC91811126C090959E239C932FBF1B
:1001600008952730A9F02830C9F0243049F72091AC
:1001700080002F7D03C0209180002F772093800086
:10018000DFCF24B52F7724BDDBCF24B52F7DFBCF68
:100190002091B0002F772093B000D2CF2091B000F3
:1001A0002F7DF9CF9E2BDACF3FB7F89480910501D0
:1001B00090910601A0910701B091080126B5A89B76
:1001C00005C02F3F19F00196A11DB11D3FBFBA2FE9
:1001D000A92F982F8827BC01CD01620F711D811DA9
:1001E000911D42E0660F771F881F991F4A95D1F72E
:1001F00008951F920F920FB60F9211242F933F93E1
:100200008F939F93AF93BF938091010190910201CF
:10021000A0910301B09104013091000123E0230F6C
:100220002D3758F50196A11DB11D20930001809333
:10023000010190930201A0930301B0930401809106
:10024000050190910601A0910701B0910801019666
:10025000A11DB11D8093050190930601A093070194
:10026000B0930801BF91AF919F918F913F912F91D2
:100270000F900FBE0F901F90189526E8230F02963F
:10028000A11DB11DD2CF789484B5826084BD84B5A0
:10029000816084BD85B5826085BD85B5816085BD81
:1002A00080916E00816080936E0010928100809139
:1002B00081008260809381008091810081608093C1
:1002C0008100809180008160809380008091B100E6
:1002D00084608093B1008091B00081608093B00011
:1002E00080917A00846080937A0080917A008260A5
:1002F00080937A0080917A00816080937A00809167
:100300007A00806880937A001092C1000E94700089
:100310000BE610E090E0E92E90E0F92ED0E0C0E08E
:100320000E947000209721F480E00E948C0026C07B
:10033000F8018491833009F456C050F48130D1F033
:10034000823009F44BC0C038D10570F381E0EDCFA5
:10035000873009F452C0883009F457C0843099F7C7
:1003600080918000806280938000D0938B00C09346
:100370008A0004C084B5806884BDC7BD0E94D400D3
:100380002B013C018AE0882E912CA12CB12C0E94DB
:10039000D4006419750986099709683E7340810580
:1003A0009105A8F3F1E08F1A9108A108B10828EE91
:1003B000420E23E0521E611C711C81149104A104A1
:1003C000B10429F72196CF3FD10509F0A9CFE11457
:1003D000F10409F4A3CF0E940000A0CF84B580628D
:1003E00084BDC8BDCBCF80918000806880938000A1
:1003F000D0938900C0938800C1CF8091B0008068FD
:100400008093B000C093B300B9CF8091B0008062F8
:0E0410008093B000C093B400B1CFF894FFCF3A
:00000001FF
