:100000000C945C000C946E000C946E000C946E00CA
:100010000C946E000C946E000C946E000C946E00A8
:100020000C946E000C946E000C946E000C946E0098
:100030000C946E000C946E000C946E000C946E0088
:100040000C940E010C946E000C946E000C946E00D7
:100050000C946E000C946E000C946E000C946E0068
:100060000C946E000C946E00000000002400270029
:100070002A0000000000250028002B0004040404CE
:100080000404040402020202020203030303030342
:10009000010204081020408001020408102001021F
:1000A00004081020000000080002010000030407FB
:1000B000000000000000000011241FBECFEFD8E0B8
:1000C000DEBFCDBF21E0A0E0B1E001C01D92A930AC
:1000D000B207E1F70E9458010C943F020C94000013
:1000E000E7EAF0E02491E3E9F0E09491EFE7F0E053
:1000F000E491EE23C9F0222339F0233001F1A8F472
:10010000213019F1223029F1F0E0EE0FFF1FEE58F7
:10011000FF4FA591B4912FB7F894EC91811126C0AF
:1001200090959E239C932FBF08952730A9F02830E7
:10013000C9F0243049F7209180002F7D03C0209121
:1001400080002F7720938000DFCF24B52F7724BD48
:10015000DBCF24B52F7DFBCF2091B0002F772093EC
:10016000B000D2CF2091B0002F7DF9CF9E2BDACFF7
:10017000CF93DF9390E0FC01E057FF4F2491845828
:100180009F4FFC0184918823D1F090E0880F991F44
:10019000FC01E859FF4FA591B491FC01EE58FF4FC7
:1001A000C591D49161110EC09FB7F8948C91E22F44
:1001B000E0958E238C932881E223E8839FBFDF9113
:1001C000CF9108958FB7F894EC91E22BEC938FBF09
:1001D000F6CF3FB7F8948091050190910601A09168
:1001E0000701B091080126B5A89B05C02F3F19F063
:1001F0000196A11DB11D3FBFBA2FA92F982F8827A7
:10020000BC01CD01620F711D811D911D42E0660F81
:10021000771F881F991F4A95D1F708951F920F9253
:100220000FB60F9211242F933F938F939F93AF9309
:10023000BF938091010190910201A0910301B091BF
:1002400004013091000123E0230F2D3758F501966A
:10025000A11DB11D20930001809301019093020123
:10026000A0930301B09304018091050190910601D0
:10027000A0910701B09108010196A11DB11D8093C5
:10028000050190930601A0930701B0930801BF9167
:10029000AF919F918F913F912F910F900FBE0F9033
:1002A0001F90189526E8230F0296A11DB11DD2CFED
:1002B000789484B5826084BD84B5816084BD85B541
:1002C000826085BD85B5816085BD80916E0081604D
:1002D00080936E00109281008091810082608093F3
:1002E00081008091810081608093810080918000F5
:1002F0008160809380008091B10084608093B10020
:100300008091B00081608093B00080917A00846019
:1003100080937A0080917A00826080937A00809145
:100320007A00816080937A0080917A00806880935F
:100330007A001092C10061E083E00E94B80060E0A2
:100340008EE00E94B80030E4332E0FEF10E047EA51
:10035000C42E40E0D42E50E0E52E50E0F52E309231
:100360007C0080917A00806480937A0080917A008A
:1003700086FDFCCF809178009091790096958795C5
:1003800096958795E801C81BD90B61E083E00E9430
:10039000B800209771F580E00E9470000E94E9008B
:1003A0002B013C0184E6882E912CA12CB12C0E94BB
:1003B000E9006419750986099709683E734081054B
:1003C0009105A8F3F1E08F1A9108A108B10828EE71
:1003D000420E23E0521E611C711C81149104A10481
:1003E000B10429F7E114F10409F4B9CF0E94000027
:1003F000B6CFCF3FD10511F481E0CECFF601849185
:10040000833019F140F48130B1F08230C9F0C03846
:10041000D10594F7C0CF873011F1883041F1843095
:10042000B1F780918000806280938000D0938B0030
:10043000C0938A00B3CF84B5806884BDC7BDAECFFA
:1004400084B5806284BDC8BDA9CF809180008068DA
:1004500080938000D0938900C09388009FCF8091C3
:10046000B00080688093B000C093B30097CF8091B4
:10047000B00080628093B000C093B4008FCFF89436
:02048000FFCFAC
:00000001FF
